:100000000C9400010C9431010C9431010C943101D9
:100010000C9431010C9431010C9431010C94310198
:100020000C9431010C9431010C9431010C94310188
:100030000C9431010C9431010C9431010C94310178
:100040000C9431010C9431010C9431010C94310168
:100050000C9431010C9431010C9431010C948C02FC
:100060000C9431010C9400030C94D6020C943101D1
:100070000C9431010C9431010C9431010C94310138
:100080000C9431010C9431010C9431010C94310128
:100090000C9431010C9431010C9431010C94310118
:1000A0000C9431010C9431010C9431010C94310108
:1000B0000C9431010C9431010C9431010C943101F8
:1000C0000C9431010C9431010C9431010C943101E8
:1000D0000C9431010C9431010C9431010C943101D8
:1000E0000C9431010C94B6010C9494010C9485018C
:1000F0000C943B020C9458010C94A8010C943F04FE
:100100000C94EE0100407A10F35A00A0724E1809C8
:100110000010A5D4E80000E87648170000E40B546E
:10012000020000CA9A3B000000E1F505000080963D
:100130009800000040420F000000A086010000006F
:10014000102700000000E803000000006400000029
:1001500000000A00000000000100000000002C76F2
:10016000D888DC674F0823DFC1DFAE59E1B1B7960D
:10017000E5E3E453C63AE651997696E8E6C284266A
:10018000EB898C9B62ED407C6FFCEFBC9C9F40F246
:10019000BAA56FA5F490055A2AF75C936B6CF967C2
:1001A0006DC11BFCE0E40D47FEF520E6B500D0ED87
:1001B000902E0300943577050080841E08000020EF
:1001C0004E0A000000C80C333333330F986E12838D
:1001D0001141EF8D2114893BE65516CFFEE6DB1861
:1001E000D1844B381BF77C1D901DA4BBE424203226
:1001F00084725E228100C9F124ECA1E53D273F0411
:1002000011241FBECFEFD1E2DEBFCDBF00E00CBF97
:1002100012E0A0E0B2E0E6E7F3E100E00BBF02C0CD
:1002200007900D92AA31B107D9F722E0AAE1B2E016
:1002300001C01D92A23FB207E1F710E0C0E0D1E09B
:1002400000E006C021970109802FFE010E94DB0615
:10025000CF3FD10780E00807A9F70E9436030C942E
:10026000B9090C9400003FB7F8948091EE02909188
:10027000EF02A091F002B091F10226B5A89B05C053
:100280002F3F19F00196A11DB11D3FBFBA2FA92F15
:10029000982F8827BC01CD01620F711D811D911D12
:1002A00042E0660F771F881F991F4A95D1F708957E
:1002B000AF92BF92CF92DF92EF92FF920F931F9374
:1002C000CF93DF936C017B018B01040F151FEB01B2
:1002D0005E01AE18BF08C017D10759F06991D60169
:1002E000ED91FC910190F081E02DC6011995892BCB
:1002F00079F7C501DF91CF911F910F91FF90EF909A
:10030000DF90CF90BF90AF900895FC01538D448D46
:10031000252F30E0842F90E0821B930B541710F0B0
:10032000CF96089501970895FC01918D828D9817BD
:1003300061F0A28DAE0FBF2FB11D5D968C91928D95
:100340009F5F9F73928F90E008958FEF9FEF0895C6
:10035000FC01918D828D981731F0828DE80FF11D8F
:10036000858D90E008958FEF9FEF0895FC01918DAA
:10037000228D892F90E0805C9F4F821B91098F73A3
:10038000992708958AE192E00E94B60121E0892B25
:1003900009F420E0822F0895FC01A48DA80FB92F45
:1003A000B11DA35ABF4F2C91848D90E001968F739D
:1003B0009927848FA689B7892C93A089B1898C91BC
:1003C000837080648C93938D848D981306C002880B
:1003D000F389E02D80818F7D80830895EF92FF92D5
:1003E0000F931F93CF93DF93EC0181E0888F9B8D58
:1003F0008C8D98131AC0E889F989808185FF15C012
:100400009FB7F894EE89FF896083E889F989808134
:100410008370806480839FBF81E090E0DF91CF9103
:100420001F910F91FF90EF900895F62E0B8D10E025
:100430000F5F1F4F0F731127E02E8C8D8E110CC094
:100440000FB607FCFACFE889F989808185FFF5CFDF
:10045000CE010E94CC01F1CFEB8DEC0FFD2FF11DF1
:10046000E35AFF4FF0829FB7F8940B8FEA89FB891C
:1004700080818062CFCFCF93DF93EC01888D88237A
:10048000B9F0AA89BB89E889F9898C9185FD03C0F7
:10049000808186FD0DC00FB607FCF7CF8C9185FFDC
:1004A000F2CF808185FFEDCFCE010E94CC01E9CF54
:1004B000DF91CF91089580E090E0892B29F00E9490
:1004C000C20181110E94000080E090E0892B49F078
:1004D00080E090E0892B29F00E94000081110E94A9
:1004E000000080E090E0892B49F080E090E0892BCB
:1004F00029F00E94000081110E94000080E090E03D
:10050000892B49F080E090E0892B29F00E940000BF
:1005100081110C94000008951F920F920FB60F9254
:1005200011242F933F938F939F93AF93BF93809109
:10053000EA029091EB02A091EC02B091ED023091B1
:10054000E90223E0230F2D3758F50196A11DB11DB7
:100550002093E9028093EA029093EB02A093EC02CD
:10056000B093ED028091EE029091EF02A091F00223
:10057000B091F1020196A11DB11D8093EE029093FE
:10058000EF02A093F002B093F102BF91AF919F915F
:100590008F913F912F910F900FBE0F901F90189544
:1005A00026E8230F0296A11DB11DD2CF1F920F92F4
:1005B0000FB60F9211240BB60F922F933F934F93C8
:1005C0005F936F937F938F939F93AF93BF93EF93BB
:1005D000FF938AE192E00E94CC01FF91EF91BF91DD
:1005E000AF919F918F917F916F915F914F913F91CB
:1005F0002F910F900BBE0F900FBE0F901F9018956C
:100600001F920F920FB60F9211240BB60F922F93D9
:100610008F939F93EF93FF93E0912A02F0912B0227
:100620008081E0913002F091310282FD1DC0908105
:10063000809133028F5F8F7320913402821741F0D3
:10064000E0913302F0E0E65EFD4F958F8093330238
:10065000FF91EF919F918F912F910F900BBE0F9073
:100660000FBE0F901F9018958081F2CF789484B5BB
:10067000826084BD84B5816084BD85B5826085BD9E
:1006800085B5816085BD80916E00816080936E002C
:10069000109281008091810082608093810080911E
:1006A00081008160809381008091800081608093CF
:1006B00080008091B10084608093B1008091B0008F
:1006C00081608093B000809191008260809391005E
:1006D0008091910081608093910080919000816071
:1006E000809390008091A10082608093A10080910E
:1006F000A10081608093A1008091A000816080931F
:10070000A0008091210182608093210180912101CC
:10071000816080932101809120018160809320017C
:1007200080917A00846080937A0080917A00826060
:1007300080937A0080917A00816080937A00809122
:100740007A00806880937A001092C100E0912A02BA
:10075000F0912B0282E08083E0912602F091270243
:100760001082E0912802F091290280E180831092AA
:100770003202E0912E02F0912F0286E08083E09118
:100780002C02F0912D02808180618083E0912C0207
:10079000F0912D02808188608083E0912C02F0919D
:1007A0002D02808180688083E0912C02F0912D02DF
:1007B00080818F7D80830E9433014B015C0194EC2A
:1007C000C92E99E0D92EE12CF12C0E943301681931
:1007D00079098A099B09683E734081059105A8F350
:1007E00021E0C21AD108E108F10888EE880E83E002
:1007F000981EA11CB11CC114D104E104F10429F715
:1008000082E1E82E82E0F82EC7EBD2E00FED12E095
:1008100022E044E06BE774E180EA91E40E946C041A
:1008200005ED12E022E044E06EEA77E481E89FE320
:100830000E946C04C8019F930F938FED92E09F93E9
:100840008F93FF92EF92DF93CF930E94E306FE0116
:1008500001900020E9F7AF01485B524067EB72E07E
:100860008AE192E00E9458010E945B028DB79EB718
:1008700008960FB6F8949EBF0FBE8DBFC7CFEAE1B2
:10088000F2E01382128288EE93E0A0E0B0E084836D
:100890009583A683B78384E092E09183808385EC7F
:1008A00090E09587848784EC90E09787868780EC3A
:1008B00090E0918B808B81EC90E0938B828B82EC2B
:1008C00090E0958B848B86EC90E0978B868B118ED5
:1008D000128E138E148E0895EF920F931F93CF9361
:1008E000DF93E80134E047FD34E1042E000C550BA2
:1008F00057FF03C0519541955109E32E022F242F34
:10090000AE010E948A04CE01DF91CF911F910F9119
:10091000EF9008958F929F92AF92BF92CF92DF9205
:10092000EF92FF920F931F93CF93DF9300D000D0ED
:1009300000D0CDB7DEB76A01F22EB02E102FFBE348
:10094000AF2EA01608F41BE31F5F012F27E0AE01B6
:100950004F5F5F4F0E940306BC018981982F9970F9
:10096000913009F44EC09BE2E1FC04C09E2D9170D1
:10097000E0FC49C05E2D5071E82FE87083FF55C040
:1009800084E0911101C083E0EF2DE81B8F1508F082
:10099000E0E0D6018E2F20E25523C9F1992329F0FA
:1009A000D6019C93C60101966C0196012D5F3F4FC5
:1009B000E2FE33C08EE4D6018C9391E411969C93B1
:1009C000119712968C93D9018E2F90E281112AC033
:1009D000E20FF32FF11D10828EEF9FEF29960FB6D5
:1009E000F894DEBF0FBECDBFDF91CF911F910F9165
:1009F000FF90EF90DF90CF90BF90AF909F908F903F
:100A000008959DE2B7CF90E2B5CF2D93815081112B
:100A1000FCCFCE0ED11CE0E0C1CF8EE6D6018C9388
:100A200091E6CCCF9D938150D1CF482F447082FF67
:100A30003DC084E0911101C083E08F1510F4EF2DCB
:100A4000E81BD6018E2F20E2552309F1992329F0C6
:100A5000D6019C93C60101966C0196012D5F3F4F14
:100A6000E2FE1BC089E4D6018C938EE411968C9330
:100A7000119786E412968C93D9018E2F90E28823E9
:100A800009F4A6CF9D938150FACF2D938150811107
:100A9000FCCFCE0ED11CE0E0D9CF89E6D6018C93F5
:100AA0008EE611968C93119786E6E4CF9B0177FF33
:100AB00002C030E020E0A1E0B0E0911102C0B0E05F
:100AC000A0E0F9013196AE0FBF1F8B2C912CBB20FB
:100AD00009F461C05401EFEFAE1ABE0AAA0DBB1DA6
:100AE000FA161B0619F014F04F2D4A1B511188C03D
:100AF000E3FC59C07601A42FB0E2A1114FC0C40E8F
:100B0000D11C992309F45BC040E0D6011196F6018F
:100B100090836D01552309F448C0012F060F9A8177
:100B2000582F507184FF03C0913309F401501016FF
:100B30000CF047C0093008F008E0EEE2FE2E5B0141
:100B4000A01AB10885019194819491082F3F320732
:100B500029F4D601FC92F60131966F0162177307F2
:100B600094F1021713077CF5DB01A21BB30BAA2437
:100B7000A394B12CAC0EBD1EAA0DBB1D11968C9179
:100B800021503109D601119628153905F4F0F601E6
:100B900080836D01DBCFB12CA12CA0CFF701B193E5
:100BA0007F01A150AACF9111B0CFD601942F50E36D
:100BB00002C05D9391509111FCCFC40ED11C40E056
:100BC000ACCF01E0BACF80E3DBCF6217730731F41B
:100BD000963388F4953311F4552369F0F601808338
:100BE000FD01842F90E2811108C0A40FB11D1C9259
:100BF00090E080E0F3CE81E3F1CF91938150F3CF89
:100C0000911183CF8ACF283008F027E03327DA010B
:100C1000990F311D87FD916000966105710539F4CA
:100C200032602E5F3D9330E32A95E1F708959F3FB0
:100C300030F080387105610509F03C5F3C5F3D9301
:100C4000913008F08068911DDF93CF931F930F932D
:100C5000FF92EF92192F987F9695E92F969596958A
:100C6000E90FFF27E25AFE4F99273327EE24FF248E
:100C7000A701E70105900894079428F4360FE71EB2
:100C8000F81E491F511D660F771F881F991F069474
:100C9000A1F70590079428F4E70EF81E491F561F88
:100CA000C11D770F881F991F661F0694A1F7059035
:100CB000079428F4F80E491F561FC71FD11D880F2F
:100CC000991F661F771F0694A1F70590079420F4DB
:100CD000490F561FC71FD81F990F661F771F881F00
:100CE0000694A9F784911095177041F0D695C79591
:100CF00057954795F794E7941A95C1F7E4E0F1E02A
:100D000068941590159135916591959105907FE2C4
:100D10007395E118F10A430B560BC90BD009C0F7C4
:100D2000E10CF11E431F561FC91FD01D7EF4703306
:100D300011F48A95E6CFE894015030F0080F0AF4D8
:100D40000027021708F4202F2395022F7A3328F06A
:100D500079E37D932A95E9F710C07D932A9589F66A
:100D6000069497956795379517951794E118F10AAA
:100D7000430B560BC90BD00998F023957E917395C0
:100D80007A3308F070E37C932013B8F77E9170619A
:100D90007D9330F0839571E37D9370E32A95E1F7BD
:100DA0001124EF90FF900F911F91CF91DF91992720
:100DB00087FD90950895EE0FFF1F881F8BBF07904A
:100DC000F691E02D19940F931F93CF93DF93CDB736
:100DD000DEB72E970FB6F894DEBF0FBECDBF0E89DB
:100DE0001F8986E08C831A8309838FEF9FE79E8398
:100DF0008D83AE01465E5F4F688D798DCE01019681
:100E00000E9413072F813885020F131FF8011082EB
:100E10002E960FB6F894DEBF0FBECDBFDF91CF91F7
:100E20001F910F9108952F923F924F925F926F9270
:100E30007F928F929F92AF92BF92CF92DF92EF926A
:100E4000FF920F931F93CF93DF9300D000D000D079
:100E50001F921F92CDB7DEB77C013B018A01FC01D6
:100E600017821682838181FFDDC1CE0101965C016C
:100E7000F7019381F30193FD859193FF81913F01E8
:100E8000882309F453C1853239F493FD859193FF8A
:100E900081913F01853229F4B70190E00E942B092E
:100EA000E7CF912C212C312CFFE1F31538F08B3258
:100EB00011F190F4803209F1833229F137FC3CC002
:100EC00020ED280F2A3050F536FE20C08AE0989E8B
:100ED000200D1124922E06C08D3291F0803371F7CF
:100EE000689430F8F30193FD859193FF81913F0160
:100EF0008111DACF21C0689431F8689432F8F2CFCA
:100F0000689433F8EFCF689434F8ECCFEAE02E9E83
:100F1000200D1124222E689435F8E4CF8E3229F466
:100F200036FC04C1689436F8DDCF8C3619F4689429
:100F300037F8D8CF8836B1F2982F9F7D95549330EB
:100F4000E0F08336A1F18337C1F1833509F063C046
:100F50002801F2E04F0E511CF801C080D180692DAC
:100F600070E036FC02C06FEF7FEFC6010E941509EA
:100F70004C01689437F882010AC00C5F1F4FFFE3F1
:100F8000F98388248394912C6501E89437F833FE23
:100F90002DC0522C8114910471F5552009F468CFAD
:100FA000B70180E290E00E942B095A94F6CFF80135
:100FB000808189830E5F1F4FE4CF2801F2E04F0E3E
:100FC000511CF801C080D180692D70E036FC02C050
:100FD0006FEF7FEFC6010E9420094C018201D5CF3F
:100FE000B70180E290E00E942B092A94281419048A
:100FF00009F0B0F7CECFF60137FC859137FE81912D
:101000006F01B70190E00E942B0951105A94F1E052
:101010008F1A9108BFCF843619F0893609F077C04E
:10102000F80137FE6BC060817181828193810C5F12
:101030001F4FF32DFF763F2E97FF09C090958095A7
:10104000709561957F4F8F4F9F4F689437F82AE0D6
:1010500030E0A5010E945B09C82ECA188C2C432CD5
:1010600036FE0CC0E89440F8C91440F434FE05C0C4
:1010700032FC03C0F32DFE7E4F2E892C44FEAAC005
:10108000FE01EC0DF11D8081803309F09CC0242D00
:10109000297E422E842D8870582E43FCAAC040FE23
:1010A000A4C09C2C821418F42C0C922C981844FE8A
:1010B000A6C0B70180E390E00E942B0942FE09C060
:1010C00088E790E041FE02C088E590E0B7010E9409
:1010D0002B09C91408F49FC0CA94D12C9FEFC91AD8
:1010E000D90ACA0CDB1CF60182916F01B70190E0AE
:1010F0000E942B09AC14BD04B1F74FCF6081718100
:10110000072E000C880B990B0E5F1F4F92CFD32C2C
:10111000E894D4F82AE030E08537E1F1232D297FE7
:10112000D22E8F36A9F1F0F4883551F1F70186817E
:1011300097812B960FB6F894DEBF0FBECDBFDF911F
:10114000CF911F910F91FF90EF90DF90CF90BF90C4
:10115000AF909F908F907F906F905F904F903F9057
:101160002F900895803749F0883701F7D4FE02C0E8
:101170006894D2F820E130E00DC06894D4F8F6CF3E
:1011800034FE03C0822F8660D82E20E132E002C0F8
:1011900028E030E0F801D7FE0FC0608171818281C4
:1011A00093810C5F1F4FA5010E945B09C82ECA18CE
:1011B0003D2CE89437F852CF6081718190E080E057
:1011C0000E5F1F4FF0CF42FC02C0839463CF839425
:1011D000839460CF842D867809F45CCFF6CFB70175
:1011E00080E290E00E942B0983948214C0F3512C7A
:1011F0005ECF522C5818821408F459CFF8CF842DA2
:10120000867809F466CF8BE241FE80E247FC8DE2EE
:10121000B70190E05CCFB70180E390E00E942B091A
:101220009A9457CF8FEF9FEF84CFFC0105906150C8
:1012300070400110D8F7809590958E0F9F1F0895EC
:10124000FC016150704001900110D8F78095909595
:101250008E0F9F1F08950F931F93CF93DF93182F27
:10126000092FEB018B8181FD09C01FEF0FEF812F4B
:10127000902FDF91CF911F910F91089582FF14C09D
:101280002E813F818C819D81281739073CF4E881AC
:10129000F981CF0101969983888310838E819F8184
:1012A00001969F838E83E3CFE885F985812F199579
:1012B000892BA1F3DACFFA01AA27283051F1203186
:1012C00081F1E8946F936E7F6E5F7F4F8F4F9F4FDA
:1012D000AF4FB1E03ED0B4E03CD0670F781F891F1C
:1012E0009A1FA11D680F791F8A1F911DA11D6A0FEA
:1012F000711D811D911DA11D20D009F468943F919D
:101300002AE0269F11243019305D3193DEF6CF019B
:101310000895462F4770405D4193B3E00FD0C9F761
:10132000F6CF462F4F70405D4A3318F0495D31FDCE
:101330004052419302D0A9F7EACFB4E0A695979521
:10134000879577956795BA95C9F7009761057105F7
:1013500008959B01AC010A2E069457954795379541
:101360002795BA95C9F7620F731F841F951FA01D9B
:061370000895F894FFCF80
:1013760000000000EE01580185013B02B601940110
:0A138600A80125732C25730A00004E
:00000001FF
